:020000040000FA
:100000000A128A11F22F00308A000408840A82073B
:1000100000343F3406345B344F3466346D347D3401
:1000200007347F346F348312031397151715121595
:100030008316031307110800831203134308803942
:10004000C4004408CD004308C4004407C500450867
:10005000D400C21F2C282D282E285414540803190C
:10006000322833284328540A031D372838284028CB
:100070000030C3000030C2000030C1000030C000BA
:10008000C217C3014B280030C3000030C20000304B
:10009000C1000030C0003F088039C4004408CD06CC
:1000A0003F08C4004407C5004508D500BE1F5928B5
:1000B0005A285B285514550803195F2860287028B2
:1000C000550A031D642865286D280030BF000030E4
:1000D000BE000030BD000030BC00BE17BF01782854
:1000E0000030BF000030BE000030BD000030BC005A
:1000F0003F083E043D043C04031D7F2880289928C6
:100100000030C3000030C2000030C1000030C00029
:100110008030C2047F30C3044D08C4004408C304C7
:100120004308BF004208BE004108BD004008BC00B3
:10013000F8295408031D9D289E28A7280030BF00D9
:100140000030BE000030BD000030BC00F82954086B
:10015000C400C5014508C70055084402C600031C79
:10016000C70346087F3ECE0047080318013E003E05
:10017000CF004308CC004208CB004108CA00400829
:10018000C9000030C3000030C2000030C1000030A0
:10019000C0000030D3000030D2000030D100003069
:1001A000D000D5011D2955080319D728D828F828CB
:1001B0000130C4000310C90DCA0DCB0DCC0DC40B0A
:1001C000DA280130C4000310C00DC10DC20DC30DEB
:1001D000C40BE328D31FED28EE28EF28401401308C
:1001E000C4000310D00DD10DD20DD30DC40BF128D6
:1001F0003F084C02031D06293E084B02031D062939
:100200003D084A02031D06293C084902031C09292E
:100210000A29192953173C08C9023D08031C3D0F40
:10022000CA023E08031C3E0FCB023F08031C3F0FCF
:10023000CC020130C4004408D5071A305502031C13
:1002400022292329D3284C084B044A0449040319C2
:100250002A292B294A2950144A290130C4000310A5
:10026000C00DC10DC20DC30DC40B2F29D31F3929D9
:100270003A293B2940140130C4000310D00DD10DA0
:10028000D20DD30DC40B3D29FF30CE070318CF0A82
:10029000FF30CF07C21F4D294E292D29D501D31F6D
:1002A000522953296F29FF305005C400FF305105F2
:1002B000C500FF305205C6007F305305C700470810
:1002C0004604450444040319662967296A29D501AF
:1002D000D50A6F29401C6D296E296F296729550899
:1002E000031973297429A5290130C00700300318A8
:1002F0000130C107003003180130C2070030031875
:100300000130C307431C85298629A5294008C4005C
:100310004108C5004208C6004308C7000130C800B4
:10032000470DC70CC60CC50CC40CC80B9029470858
:10033000C3004608C2004508C1004408C00001309F
:10034000CE070318CF0A0030CF074F08803AFF00CE
:1003500080307F02031DAE29FF304E02031CB129FD
:10036000B229C029FF3083120313CE000030CF0022
:100370000030C3000030C2000030C1000030C000B7
:10038000831203134F08803AFF0080307F02031D61
:10039000CB2901304E020318CE29CF29DC29831244
:1003A0000313CE01CF010030C3000030C200003083
:1003B000C1000030C000CD01831203134E08C400F9
:1003C0004408D400541CE529E629E829C217EC2981
:1003D0007F30C4004408C2055408C4000310440C14
:1003E000C5004508C3004D08C4004408C304902854
:1003F00008007308803983120313A0002008F80056
:100400007308A0002007A1002108FA00F21F092AA2
:100410000A2A0B2A7A147A0803190F2A102A202A8A
:100420007A0A031D142A152A1D2A0030F300003011
:10043000F2000030F1000030F000F217F301282A3A
:100440000030F3000030F2000030F1000030F00026
:1004500077088039A0002008F90079087806031988
:10046000322A332A342A78177708A0002007A100FF
:100470002108F900F61F3D2A3E2A3F2A79147908FF
:100480000319432A442A542A790A031D482A492A6F
:10049000512A0030F7000030F6000030F50000303F
:1004A000F400F617F7015C2A0030F7000030F60080
:1004B0000030F5000030F4007A0879020318612A50
:1004C000622AA62A781F652A662A6A2A8030A00036
:1004D0002008F8067A08A0002008FB007908A00090
:1004E0002008FA007B08A0002008F9007008A0008E
:1004F0002008FB007408A0002008F0007B08A00082
:100500002008F4007108A0002008FB007508A00076
:100510002008F1007B08A0002008F5007208A00068
:100520002008FB007608A0002008F2007B08A0004D
:100530002008F6007308A0002008FB007708A00040
:100540002008F3007B08A0002008F700FB017908D1
:10055000A000A1012108A3007A082002A200031C28
:10056000A3032308803AFF0080307F02031DBA2ACC
:100570001A302202031CBD2ABE2AFF2A7308720405
:1005800071047004031DC52AC72A0130C82A00302F
:1005900083120313A0002008FB000030F30000309A
:1005A000F2000030F1000030F0007908A0002008CF
:1005B000FA00052B7B1CDD2ADE2AE92A7B08831240
:1005C0000313A0000310200C0138A1002108FB0038
:1005D000EB2A0310FB0C701CEE2AEF2AF02AFB1703
:1005E000013083120313A000730DF30CF20CF10C15
:1005F000F00CA00BF42A0130A0002008FA077908BB
:100600007A02031C042B052BDA2A781B082B092BF2
:10061000582B7A08031D0D2B0E2B172B0030F300DF
:100620000030F2000030F1000030F000902C74082F
:10063000F007750803110318013E0319202BF10779
:10064000760803110318013E0319272BF2077708D8
:1006500003110318013E03192E2BF307731C312BD2
:10066000322B102C7B1C352B362B412B7B08831215
:100670000313A0000310200C0138A1002108FB0087
:10068000432B0310FB0C701C462B472B482BFB17EE
:10069000013083120313A000730DF30CF20CF10C64
:1006A000F00CA00B4C2B0130A0002008FA07102CF6
:1006B0007308803AFF007708803A7F02031D6A2B97
:1006C00076087202031D6A2B75087102031D6A2BDE
:1006D0007408700203186D2B6E2BC82BFF30831229
:1006E0000313A000FF30A100FF30A200FF30A300E1
:1006F0007408A4007508A5007608A6007708A7006E
:100700007008A4027108031C710F872B882BA502A7
:100710007208031C720F8D2B8E2BA6027308031C0C
:10072000730F932B942BA7022408A0072508031806
:10073000250F9B2B9C2BA10726080318260FA12B06
:10074000A22BA20727080318270AA3072308F300F0
:100750002208F2002108F1002008F0008030A000FB
:100760002008F806FB09FB0A7B08031DB82BB92BF0
:10077000D62B0130F007003003180130F1070030AC
:1007800003180130F207003003180130F307D62BAD
:100790007408F0027508031C750FF1027608031C3B
:1007A000760FF2027708031C770FF30273087204C6
:1007B00071047004031DDD2BDE2B0C2C7B08031D44
:1007C000E22BE32B0C2C0030F3000030F200003061
:1007D000F1000030F000902C013083120313A000D0
:1007E0000310F00DF10DF20DF30DA00BF02BFB1F1C
:1007F000FA2BFB2BFC2B70147B1CFF2B002C032CE7
:100800000314FB0D052C0310FB0D7A080319092CAA
:100810000A2C0C2C0130FA02F21F0F2C102CEC2B9E
:10082000F901FB1F142C152C232C7B087F3903198D
:100830001A2C1B2C1E2CF901F90A232C701C212CBC
:10084000222C232C1B2C79080319272C282C5E2CF6
:100850000130F007003003180130F10700300318B1
:100860000130F207003003180130F307731C392CF4
:100870003A2C5E2C700883120313A0007108A100AB
:100880007208A2007308A3000130A400230DA30C7A
:10089000A20CA10CA00CA40B462C2308F3002208E8
:1008A000F2002108F1002008F0007A0A0319592CFF
:1008B0005A2C5E2C0130A0002008FA077A0A03198E
:1008C000622C632C682C7A08031D672C682C762C0C
:1008D0000030F3000030F2000030F1000030F00092
:1008E0007A08031D742C752C762CF8017A1C792C4F
:1008F0007A2C7C2CF217822C7F3083120313A000F9
:100900002008F2057A0883120313A0000310200CBC
:10091000A1002108F300F81F8E2C8F2C902CF317C8
:1009200008008312031359088039DE005E08E300D3
:100930005908DE005E07DF005F08E900D81FA12C20
:10094000A22CA32C691469080319A72CA82CB72C76
:10095000690A031DAC2CAD2CB52C0030D900003039
:10096000D8000030D7000030D600D817BF2C003098
:10097000D9000030D8000030D7000030D6005D0824
:100980008039DE005E08E3065D08DE005E07DF00FA
:100990005F08E800DC1FCD2CCE2CCF2C6814680833
:1009A0000319D32CD42CE32C680A031DD82CD92C82
:1009B000E12C0030DD000030DC000030DB000030D6
:1009C000DA00DC17EB2C0030DD000030DC000030FA
:1009D000DB000030DA0068080319EF2CF02CF52C4E
:1009E0006908031DF42CF52CFE2C0030D9000030D2
:1009F000D8000030D7000030D600F12F5608DE00B6
:100A00005E08F0005C080A168A1134270A128A115F
:100A1000710883120313EF007008EE006E08DE0009
:100A2000DF01E001E1016108E7006008E6005F081E
:100A3000E5005E08E4006F08DE00DF01E001E1018F
:100A40006108ED006008EC005F08EB005E08EA005A
:100A50005708DE005E08F0005B080A168A1134278A
:100A60000A128A11710883120313EF007008EE0056
:100A70006E08DE00DF01E001E1015E08E4075F08C7
:100A800003110318013E0319462DE5076008031101
:100A90000318013E03194D2DE607610803110318E1
:100AA000013E0319542DE7076F08DE00DF01E00166
:100AB000E1015E08EA075F0803110318013E03190C
:100AC000622DEB07600803110318013E0319692D1D
:100AD000EC07610803110318013E0319702DED079F
:100AE0005808DE005E08F0005A080A168A113427FA
:100AF0000A128A11710883120313EF007008EE00C6
:100B00006E08DE00DF01E001E1015E08E4075F0836
:100B100003110318013E03198E2DE5076008031128
:100B20000318013E0319952DE60761080311031808
:100B3000013E03199C2DE7076F08DE00DF01E0018D
:100B4000E1015E08EA075F0803110318013E03197B
:100B5000AA2DEB07600803110318013E0319B12DFC
:100B6000EC07610803110318013E0319B82DED07C6
:100B70000830DE000310E40DE50DE60DE70DDE0B99
:100B8000BA2D5708DE005E08F0005A080A168A11CE
:100B900034270A128A11710883120313EF007008B8
:100BA000EE006E08DE006F08DF00E001E1015E0884
:100BB000E4075F0803110318013E0319E02DE50760
:100BC000600803110318013E0319E72DE6076108C9
:100BD00003110318013E0319EE2DE7075608DE0046
:100BE0005E08F0005B080A168A1134270A128A117F
:100BF000710883120313EF007008EE006E08DE0028
:100C00006F08DF00E001E1015E08E4075F080311FF
:100C10000318013E03190D2EE507600803110318A0
:100C2000013E0319142EE607610803110318013E63
:100C300003191B2EE7070830DE000310E40DE50D55
:100C4000E60DE70DDE0B1D2E5608DE005E08F000F7
:100C50005A080A168A1134270A128A117108831257
:100C60000313EF007008EE006E08DE006F08DF006F
:100C7000E001E1015E08E4075F0803110318013E8B
:100C80000319432EE507600803110318013E0319F9
:100C90004A2EE607610803110318013E0319512E7D
:100CA000E7075708DE005E08F0005C080A168A11A4
:100CB00034270A128A11710883120313EF00700897
:100CC000EE006E08DE006F08DF00E001E1015E0863
:100CD000EA075F0803110318013E0319702EEB07A2
:100CE000600803110318013E0319772EEC07610811
:100CF00003110318013E03197E2EED075808DE008C
:100D00005E08F0005B080A168A1134270A128A115D
:100D1000710883120313EF007008EE006E08DE0006
:100D20006F08DF00E001E1015E08EA075F080311D8
:100D30000318013E03199D2EEB07600803110318E9
:100D4000013E0319A42EEC07610803110318013EAC
:100D50000319AB2EED075808DE005E08F0005C08B2
:100D60000A168A1134270A128A1171088312031392
:100D7000EF007008EE006E08DE006F08DF00E00193
:100D8000E10108300310DE0DDF0DE00DE10DFF3E47
:100D9000031DC22E5E08EA075F0803110318013E17
:100DA0000319D32EEB07600803110318013E031942
:100DB000DA2EEC07610803110318013E0319E12E36
:100DC000ED076408DE006508DF006608E0006708DC
:100DD000E10018300310E10CE00CDF0CDE0CFF3EEC
:100DE000031DEA2E5E08EA075F0803110318013E9F
:100DF0000319FB2EEB07600803110318013E0319CA
:100E0000022FEC07610803110318013E0319092F93
:100E1000ED070830DE000310E40DE50DE60DE70DEB
:100E2000DE0B0B2F69086807DE00DF01DF0D5E08AF
:100E3000823EEE005F080318013EFF3EEF003D2FAB
:100E40000130DE000310EA0DEB0DEC0DED0DDE0BB5
:100E5000222FE71F2C2F2D2F2E2F6A140130DE009A
:100E60000310E40DE50DE60DE70DDE0B302FFF302E
:100E7000EE070318EF0AFF30EF07EC1F402F412F5A
:100E8000202FE801E71F452F462F622FFF30640512
:100E9000DE00FF306505DF00FF306605E0007F30D3
:100EA0006705E100610860045F045E040319592FBF
:100EB0005A2F5D2FE801E80A622F6A1C602F612F0C
:100EC000622F5A2F68080319662F672F982F013059
:100ED000EA07003003180130EB0700300318013037
:100EE000EC07003003180130ED076D1C782F792FC7
:100EF000982F6A08DE006B08DF006C08E0006D08C0
:100F0000E1000130E200610DE10CE00CDF0CDE0CD1
:100F1000E20B832F6108ED006008EC005F08EB0036
:100F20005E08EA000130EE070318EF0A0030EF0711
:100F30006F08803AFF0080307F02031DA12FFF3031
:100F40006E02031CA42FA52FB02F7F308312031332
:100F5000ED008030EC000030EB000030EA00E52FBF
:100F6000831203136F08803AFF0080307F02031D55
:100F7000BB2F01306E020318BE2FBF2FCB2F0030C6
:100F800083120313ED000030EC000030EB00003062
:100F9000EA00E301E52F831203136E08DE005E080A
:100FA000E900FF30EA05FF30EB057F30EC0500304B
:100FB000ED05691CDC2FDD2FDE2FEC176908DE0044
:100FC00003105E0CDF005F08ED006308DE005E08C2
:100FD000ED046D08D9006C08D8006B08D7006A08CA
:100FE000D600080083160313B601B701B801B90192
:100FF000BA01BB01BC01BD0183010A128A15CE2DC5
:10100E00831203139D151D151214921012158316BB
:10101E00031387100800FB01FC01760877040319FF
:10102E0019281A285128FD01FD0A2828013003101D
:10103E00F60DF70DFF3E031D1E280130FA007A084B
:10104E00FD07F71F2B282C281D2801300310FB0D40
:10105E00FC0DFF3E031D2D2877087902031D39284C
:10106E0076087802031C3C283D2844287608F802AE
:10107E007708031CF903F9027B1401300310F70CF7
:10108E00F60CFF3E031D45280130FD02031D5028BE
:10109E0051282C287C08F7007B08F6000800003049
:1010AE00831203130618013083160313BC003C0889
:1010BE000319622863286E283D08031D67286828D7
:1010CE006E286430F0070318F10A0030F1073C086F
:1010DE00F2007208BD00003083120313861801302F
:1010EE0083160313BA003A0803197E287F288A282C
:1010FE003B08031D832884288A289C30F007031898
:10110E00F10AFF30F1073A08F2007208BB00003016
:10111E00831203130619013083160313B80038081F
:10112E0003199A289B28A6283908031D9F28A02852
:10113E00A6280A30F0070318F10A0030F107380824
:10114E00F2007208B90000308312031386190130C1
:10115E0083160313B60036080319B628B728C2281B
:10116E003708031DBB28BC28C228F630F007031829
:10117E00F10AFF30F1073608F2007208B7000800D6
:10118E00031083120313280D290DF9007908AB0003
:10119E002B08031DD328D428DD280030A9000030E9
:1011AE00A8000030A7000030A60042292608F9004A
:1011BE002708FA002808FB002908FC001F3003103E
:1011CE00FC0CFB0CFA0CF90CFF3E031DE62879080B
:1011DE00FD007D08AA00A817FF30A605FF30A70561
:1011EE00FF30A8050030A9059630AB02AB1F0029D1
:1011FE0001291B292B08803A973E03180729082935
:10120E000929D42801300310A90CA80CA70CA60C90
:10121E00FF3E031D0A290130F9007908AB07031DB3
:10122E0019291A290929322920302B02031C2029B9
:10123E0021292D29D4280130F9000310A60DA70D60
:10124E00A80DA90DF90B24290130AB022B08031DA3
:10125E003129322922292A08031936293729422908
:10126E00A609A709A809A909A60A0319A70A031915
:10127E00A80A0319A90A080083120313A101F31F78
:10128E0049294A295729F009F109F209F309F00A07
:10129E000319F10A0319F20A0319F30AA101A10AAB
:1012AE00F71F5A295B296A29F409F509F609F70986
:1012BE00F40A0319F50A0319F60A0319F70A01309D
:1012CE00F8007808A1060030A5000030A400003018
:1012DE00A3000030A2007308720471047004031995
:1012EE0079297A29C729A001A00A8A290130F80094
:1012FE000310F00DF10DF20DF30DF80B7F290130F7
:10130E00F8007808A007F31F8D298E297D2901305A
:10131E00F8000310A20DA30DA40DA50DF80B902936
:10132E0073087702031DA52972087602031DA529ED
:10133E0071087502031DA52970087402031CA829E3
:10134E00A929B8297008F4027108031C710FF5025F
:10135E007208031C720FF6027308031C730FF70258
:10136E00221401300310F30CF20CF10CF00CFF3EC2
:10137E00031DB9290130A002031DC629C7298E29D4
:10138E0021080319CB29CC29D729A209A309A4091D
:10139E00A509A20A0319A30A0319A40A0319A50A87
:1013AE002508F3002408F2002308F1002208F000BB
:1013BE0008000030831203133C05C40000303D05C5
:1013CE00C50080303E05C6007F303F05C700470888
:1013DE00460445044404031DF529F629FE29003070
:1013EE00BF000030BE000030BD000030BC00003039
:1013FE004005C40000304105C50080304205C600DE
:10140E007F304305C7004708460445044404031DC6
:10141E00112A122A1A2A0030C3000030C2000030EE
:10142E00C1000030C000BF1F1D2A1E2A422A0030F4
:10143E00C4000030C5000030C6008030C7003C0834
:10144E00C4023D08031C3D0F2D2A2E2AC5023E085C
:10145E00031C3E0F332A342AC6023F08031C3F0FDB
:10146E00392A3A2AC7024708BF004608BE00450877
:10147E00BD004408BC00C31F452A462A6A2A003014
:10148E00C4000030C5000030C6008030C7004008E0
:10149E00C4024108031C410F552A562AC5024208B0
:1014AE00031C420F5B2A5C2AC6024308031C430F2F
:1014BE00612A622AC7024708C3004608C2004508CF
:1014CE00C1004408C0008030BF068030C306430808
:1014DE003F02031D7C2A42083E02031D7C2A41085E
:1014EE003D02031D7C2A40083C0203187F2A802AF5
:1014FE00822A0310832A0314080083120313B600F2
:10150E00360803198B2A8C2AA02AB11F8F2A902AFB
:10151E00A02A2E09B8002F09B9003009BA003109E6
:10152E00BB00B80A0319B90A0319BA0A0319BB0A90
:10153E00A82A3108BB003008BA002F08B9002E08BF
:10154E00B800310830042F042E04031DAF2AB02A30
:10155E00B92A0030B1000030B0000030AF000030CA
:10156E00AE003F2B9630B2003208B700CB2A0130C6
:10157E00B2003208B70701300310BB0CBA0CB90C1D
:10158E00B80CFF3E031DC32AFE303B05031DD02AB7
:10159E00D12ABE2AED2A0130B2003208B707013037
:1015AE00B807003003180130B907003003180130B6
:1015BE00BA07003003180130BB0701300310BB0C13
:1015CE00BA0CB90CB80CFF3E031DE52AFF303B05E3
:1015DE00031DF22AF32AD22AFF2A0130B702013064
:1015EE00B2000310B80DB90DBA0DBB0DB20BF82A2F
:1015FE00BA1B022B032B092B023037020318082BC0
:10160E00092BF42A37180C2B0D2B152BFF30B80590
:10161E00FF30B9057F30BA05FF30BB050310B70C9C
:10162E003708B200B301B401B50118300310B20D82
:10163E00B30DB40DB50DFF3E031D1D2B3208B804BE
:10164E003308B9043408BA043508BB043608031944
:10165E00312B322B372BB11F352B362B372BBB179C
:10166E003B08B1003A08B0003908AF003808AE00A8
:10167E00080083160313220883120313A600831691
:10168E000313230883120313A700A801A9010A1646
:10169E008A118F270A128A1504308316031321022A
:1016AE0000300319200203185D2B5E2B072C200837
:1016BE0083120313AE008316031321088312031340
:1016CE00AF00B001B10100300A128A1584220A124D
:1016DE008A15831203133108C3003008C2002F0885
:1016EE00C1002E08C0004430BF007F30BE00C030A5
:1016FE00BD000030BC000A128A111C200A128A1585
:10170E00831203133F08DD003E08DC003D08DB00BA
:10171E003C08DA000030F7003D30F6000930F500E5
:10172E000030F400831603132308A5002208A4003A
:10173E000310A40DA50D0310A40DA50D2408F00093
:10174E002508F100F201F3010A128A1543210A124B
:10175E008A15730883120313B1007208B000710862
:10176E00AF007008AE0001300A128A1584220A12E8
:10177E008A15831203133108D9003008D8002F08B8
:10178E00D7002E08D6000A128A1191240A128A1541
:10179E00831203135908A9005808A8005708A70078
:1017AE005608A6000A128A15C7200A128A15831235
:1017BE000313270883160313A100831203132608AD
:1017CE0083160313A00083120313971283160313B9
:1017DE002018F22BF62B831203131716F92B8312F4
:1017EE0003131712831603132008A40002300310EC
:1017FE00A40CFF3E031DFE2B240883120313950039
:10180E00080083160313220883120313A6008316FF
:10181E000313230883120313A700A801A9010A16B4
:10182E008A118F270A128A15043083160313210298
:10183E000030031920020318252C262CCF2C20084B
:10184E0083120313AE0083160313210883120313AE
:10185E00AF00B001B10100300A128A1584220A12BB
:10186E008A15831203133108C3003008C2002F08F3
:10187E00C1002E08C0004430BF007F30BE00C03013
:10188E00BD000030BC000A128A111C200A128A15F3
:10189E00831203133F08DD003E08DC003D08DB0029
:1018AE003C08DA000030F7003D30F6000930F50054
:1018BE000030F400831603132308A5002208A400A9
:1018CE000310A40DA50D0310A40DA50D2408F00002
:1018DE002508F100F201F3010A128A1543210A12BA
:1018EE008A15730883120313B1007208B0007108D1
:1018FE00AF007008AE0001300A128A1584220A1257
:10190E008A15831203133108D9003008D8002F0826
:10191E00D7002E08D6000A128A1191240A128A15AF
:10192E00831203135908A9005808A8005708A700E6
:10193E005608A6000A128A15C7200A128A158312A3
:10194E000313270883160313A1008312031326081B
:10195E0083160313A000831203139D128316031321
:10196E002018BA2CBE2C831203131D16C12C831201
:10197E0003131D12831603132008A4000230031054
:10198E00A40CFF3E031DC62C2408831203139B00D8
:10199E000800E830F6000330F70083120313210825
:1019AE00F9002008F8000A128A1512200A128A1568
:1019BE00770883120313A5007608A4006430F6009E
:1019CE000030F7002108F3002008F200E830F000A4
:1019DE000330F1000A168A11C6270A128A157108F9
:1019EE00F9007008F8000A128A1512200A128A15D8
:1019FE00770883120313A7007608A6002108F300C8
:101A0E002008F200E830F0000330F1000A168A11C7
:101A1E00C6270A128A15710883120313AF007008C5
:101A2E00AE000A30F6000030F7002F08F3002E0843
:101A3E00F2006430F0000030F1000A168A11C62759
:101A4E000A128A157108F9007008F8000A128A1530
:101A5E0012200A128A15770883120313A90076083A
:101A6E00A8002108F3002008F200E830F00003304F
:101A7E00F1000A168A11C6270A128A1571088312F6
:101A8E000313AF007008AE002F08F3002E08F2000B
:101A9E006430F0000030F1000A168A11C6270A12CF
:101AAE008A15710883120313AD007008AC000A305A
:101ABE00F0000030F1002D08F3002C08F2000A1699
:101ACE008A11C6270A128A15710883120313AB00F6
:101ADE007008AA002408013E84000A128A1103200D
:101AEE000A128A15880086170D3083120313A3007D
:101AFE00FB30A200A20B812DA30B812D83120313A9
:101B0E0086132608013E84000A128A1103200A1247
:101B1E008A15880006170D3083120313A300FB30BD
:101B2E00A200A20B982DA30B982D8312031306135C
:101B3E002808013E84000A128A1103200A128A150F
:101B4E00880086160D3083120313A300FB30A2000B
:101B5E00A20BAF2DA30BAF2D8312031386122A08EF
:101B6E00013E84000A128A1103200A128A15880087
:101B7E0006160D3083120313A300FB30A200A20B36
:101B8E00C62DA30BC62D8312031306120800FF30B9
:101B9E008316031385000F308600870188018901A3
:101BAE003630B0001030B1000030B5000030B40057
:101BBE000030B3000030B2000A168A11C6260A128F
:101BCE008A150A128A1113200A128A150A128A1508
:101BDE0007200A128A15831603133108F100300804
:101BEE00F0000A128A1556200A128A1571088316F9
:101BFE000313B1007008B00000300A168A115B277B
:101C0E000A128A157108F6007008F5000A30F700FE
:101C1E000030F8000A168A110F270A128A15750865
:101C2E0083160313A6007608A7000310A70CA60CB4
:101C3E000310A70CA60C0310A70CA60C26086A3ED0
:101C4E00C00027080318013EFF3EC10001300A16EE
:101C5E008A115B270A128A15710883160313BF00B7
:101C6E007008BE003108F9003008F8000A30F6009E
:101C7E000030F7000A128A1512200A128A15760809
:101C8E0083160313A6007708A700A801A901290847
:101C9E0083120313B1008316031328088312031350
:101CAE00B00083160313270883120313AF008316A5
:101CBE000313260883120313AE0000300A128A158E
:101CCE0084220A128A158312031331088316031312
:101CDE00AF0083120313300883160313AE00831272
:101CEE0003132F0883160313AD00831203132E085C
:101CFE0083160313AC002F0883120313BF00831641
:101D0E0003132E0883120313BE00831603132D082C
:101D1E0083120313BD00831603132C0883120313BF
:101D2E00BC0083160313400883120313AE00831600
:101D3E000313410883120313AF000030AF1BFF30B3
:101D4E00B000B10001300A128A1584220A128A15D7
:101D5E00831203133108C3003008C2002F08C100DC
:101D6E002E08C0000A128A15E0210A128A15031CD9
:101D7E00C12EC22EE42E4130F3002030F20000308E
:101D8E00F1000030F000831603133508F700340815
:101D9E00F6003308F5003208F4000A128A11F92110
:101DAE000A128A15730883160313B5007208B4005D
:101DBE007108B3007008B200232F41308312031351
:101DCE00AB002030AA000030A9000030A800831616
:101DDE000313350883120313AF008316031334085D
:101DEE0083120313AE0083160313330883120313F7
:101DFE00AD0083160313320883120313AC000A16C8
:101E0E008A11EB260A128A15831203132B088316E6
:101E1E000313B500831203132A0883160313B400A9
:101E2E0083120313290883160313B30083120313BB
:101E3E00280883160313B2003F0883120313AD0064
:101E4E00831603133E0883120313AC000A168A117D
:101E5E00CF260A128A15831203132D088316031335
:101E6E00BF00831203132C0883160313BE00410810
:101E7E0083120313AD00831603134008831203135A
:101E8E00AC000A168A11CF260A128A158312031382
:101E9E002D0883160313C100831203132C08831617
:101EAE000313C000350883120313A900831603130E
:101EBE00340883120313A800831603133308831206
:101ECE000313A70083160313320883120313A6000D
:101EDE000A128A15C7200A128A15831203132708BD
:101EEE00AD002608AC000A168A11CF260A128A15F2
:101EFE00831203132C08AE002D08AF000030AF1B69
:101F0E00FF30B000B10001300A128A1584220A1285
:101F1E008A1583120313310883160313B500831237
:101F2E000313300883160313B400831203132F0810
:101F3E0083160313B300831203132E0883160313A1
:101F4E00B200350883120313A90083160313340855
:101F5E0083120313A800831603133308831203138B
:101F6E00A70083160313320883120313A6000A1266
:101F7E008A15C7200A128A1583120313270883169F
:101F8E000313AB0083120313260883160313AA0050
:101F9E002B08A1002A08A000A030A2000F30A30039
:101FAE000A128A1540230A128A15831603133F0854
:101FBE00A1003E08A000A030A2000F30A3000A121C
:101FCE008A1508240A128A15831603133108831200
:101FDE000313A10083160313300883120313A0000A
:101FEE000A128A15D0240A128A15F22D0A128A11A3
:021FFE000028B9
:102D8C008030831603139F00C130831203139F00FE
:102D9C00080083120313AD1FD42ED52ED72EAC01F1
:102DAC00AD012D08803AFF0084307F02031DE02E18
:102DBC0000302C02031CE32EE42EEA2EFF3083128B
:102DCC000313AC000330AD000800803083120313F2
:102DDC00AB062F08F3002E08F2002D08F1002C088A
:102DEC00F0002B08F7002A08F6002908F50028083F
:102DFC00F4000A128A11F9210A168A117308831237
:102E0C000313AB007208AA007108A9007008A8008F
:102E1C000800F901FA01751C142F152F1B2F7708C8
:102E2C00F9070318FA0A7808FA0701300310F70DAE
:102E3C00F80DFF3E031D1C2F01300310F60CF50C92
:102E4C00FF3E031D232F75087604031D2E2F2F2FF5
:102E5C00112F7A08F6007908F5000800F800F40143
:102E6C00F5017008F200F3017208F6007308F70020
:102E7C00781C412F422F482F7608F4070318F50AC7
:102E8C007708F50701300310F60DF70DFF3E031D13
:102E9C00492F0310F80C7808031D552F562F3E2F81
:102EAC007508F1007408F0000800F4000830740292
:102EBC00031C612F622F652FF001F1018E2FC5309D
:102ECC00F2007208831203139F057408F20002309B
:102EDC000310F20DFF3E031D6E2F0310720DF30055
:102EEC0073089F040330F3009730F200F20B7C2F31
:102EFC00F30B7C2F812F831203131F151F19872FA0
:102F0C00882F842F1E08F100831603131E08F0006F
:102F1C000800831203132608F9002708FA00280872
:102F2C00FB002908FC0002300310F90DFA0DFB0D13
:102F3C00FC0DFF3E031D9A2F02300310F90DFA0D04
:102F4C00FB0DFC0DFF3E031DA32F7C08F3007B083B
:102F5C00F2007A08F1007908F0000030F7003D30FB
:102F6C00F6000930F5000030F4000A128A154321EE
:102F7C000A168A117008FF3E83160313920008008C
:102F8C00700871040319CB2FCC2FFB2FF501F50A18
:102F9C00DA2F01300310F00DF10DFF3E031DD02F81
:102FAC000130F4007408F507F11FDD2FDE2FCF2F51
:102FBC0071087302031DE42F70087202031CE72FC3
:102FCC00E82FEE2F7008F2027108031CF303F302D2
:102FDC0001300310F10CF00CFF3E031DEF2F0130FC
:102FEC00F502031DFA2FFB2FDE2F7308F100720878
:042FFC00F0000800D9
:02400E003A3F37
:00000001FF
