:020000040000FA
:060000000A128A11F22F22
:10000A00831203139D151D151214921012158316CF
:10001A0003138710080000308312031306180130F7
:10002A0083160313BB003B0803191C281D28282824
:10003A003C08031D2128222828286430F0070318C9
:10004A00F10A0030F1073B08F2007208BC000030E8
:10005A00831203138618013083160313B900390873
:10006A0003193828392844283A08031D3D283E2810
:10007A0044289C30F0070318F10AFF30F1073908C9
:10008A00F2007208BA000030831203130619013015
:10009A0083160313B7003708031954285528602814
:1000AA003808031D59285A2860280A30F00703180F
:1000BA00F10A0030F1073708F2007208B800003080
:1000CA00831203138619013083160313B50035080A
:1000DA000319702871287C283608031D752876288C
:1000EA007C28F630F0070318F10AFF30F1073508CB
:1000FA00F2007208B6000800E830F6000330F70094
:10010A00831203132108F9002008F8000A128A153D
:10011A0087230A128A11770883120313A500760827
:10012A00A4006430F6000030F7002108F30020082C
:10013A00F200E830F0000330F1000A128A154D236C
:10014A000A128A117108F9007008F8000A128A1551
:10015A0087230A128A11770883120313A7007608E5
:10016A00A6002108F3002008F200E830F00003306E
:10017A00F1000A128A154D230A128A117108831294
:10018A000313AF007008AE000A30F6000030F70023
:10019A002F08F3002E08F2006430F0000030F1005E
:1001AA000A128A154D230A128A117108F900700879
:1001BA00F8000A128A1587230A128A11770883120D
:1001CA000313A9007608A8002108F3002008F2000A
:1001DA00E830F0000330F1000A128A154D230A12A2
:1001EA008A11710883120313AF007008AE002F083A
:1001FA00F3002E08F2006430F0000030F1000A1219
:10020A008A154D230A128A11710883120313AD004D
:10021A007008AC000A30F0000030F1002D08F3003D
:10022A002C08F2000A128A154D230A128A11710843
:10023A0083120313AB007008AA002408013E84004D
:10024A000A128A1500200A128A11880086170D30B0
:10025A0083120313A300FB30A200A20B3229A30BC3
:10026A0032298312031386132608013E84000A12D8
:10027A008A1500200A128A11880006170D30831287
:10028A000313A300FB30A200A20B4929A30B49299F
:10029A008312031306132808013E84000A128A15E2
:1002AA0000200A128A11880086160D308312031361
:1002BA00A300FB30A200A20B6029A30B60298312C2
:1002CA00031386122A08013E84000A128A150020A6
:1002DA000A128A11880006160D3083120313A3002E
:1002EA00FB30A200A20B7729A30B772983120313F1
:1002FA0006120800FF308316031385000F308600AC
:10030A008701880189013030B3001130B4000A3006
:10031A00B1000030B2000A128A156C220A128A1140
:10032A000A128A1575220A128A110A128A110520DE
:10033A000A128A11831603133408F1003308F000F5
:10034A000A128A1110200A128A11710883160313DD
:10035A00B4007008B30000300A128A15E2220A12A9
:10036A008A117108F6007008F5000A30F7000030AB
:10037A00F8000A128A1596220A128A11750883163B
:10038A000313A9007608AA000310AA0CA90C0310EB
:10039A00AA0CA90C0310AA0CA90C29086A3EBD00D4
:1003AA002A080318013EFF3EBE003408F90033084C
:1003BA00F8000A30F6000030F7000A128A1587237F
:1003CA000A128A11760883160313A9007708AA006D
:1003DA00AB01AC012C0883120313A9008316031383
:1003EA002B0883120313A800831603132A08831207
:1003FA000313A70083160313290883120313A60005
:10040A0000300A128A15A8250A128A1183120313C8
:10041A00290883160313B0008312031328088316CE
:10042A000313AF0083120313270883160313AE00C6
:10043A0083120313260883160313AD003D088312A3
:10044A000313A600831603133E0883120313A7009F
:10045A000030A71BFF30A800A90001300A128A1534
:10046A00A8250A128A11831203132908B70028083B
:10047A00B6002708B5002608B4008316031330080F
:10048A0083120313BB00831603132F08831203136B
:10049A00BA00831603132E0883120313B9008316B6
:1004AA0003132D0883120313B8000A128A150425B0
:1004BA000A128A11031C622A632A6C2A03308316E1
:1004CA000313B1070318B20A0030B207742AF930CD
:1004DA0083160313B1070318B20AFF30B2073208B2
:1004EA00F1003108F0000A128A157E220A128A11D6
:1004FA00710883160313B2007008B1003E08A60003
:10050A003D08A500A030A7000F30A8000A128A15DE
:10051A0064260A128A11831603133208A6003108C8
:10052A00A500A030A7000F30A8000A128A153227AA
:10053A000A128A1183160313340883120313A100C3
:10054A0083160313330883120313A0000A128A11B5
:10055A0081200A128A119F290A128A1100288312FD
:10056A0003133B088039BC003C08C5003B08BC00AB
:10057A003C07BD003D08CC00BA1FC42AC52AC62ABA
:10058A004C144C080319CA2ACB2ADB2A4C0A031D2D
:10059A00CF2AD02AD82A0030BB000030BA00003057
:1005AA00B9000030B800BA17BB01E32A0030BB001B
:1005BA000030BA000030B9000030B800370880397E
:1005CA00BC003C08C5063708BC003C07BD003D0816
:1005DA00CD00B61FF12AF22AF32A4D144D08031949
:1005EA00F72AF82A082B4D0A031DFC2AFD2A052B97
:1005FA000030B7000030B6000030B5000030B4005B
:10060A00B617B701102B0030B7000030B600003023
:10061A00B5000030B4003708360435043404031D2D
:10062A00172B182B312B0030BB000030BA000030DA
:10063A00B9000030B8008030BA047F30BB044508E6
:10064A00BC003C08BB043B08B7003A08B6003908AE
:10065A00B5003808B400902C4C08031D352B362BF6
:10066A003F2B0030B7000030B6000030B500003034
:10067A00B400902C4C08BC00BD013D08BF004D08D9
:10068A003C02BE00031CBF033E087F3EC6003F0873
:10069A000318013E003EC7003B08C4003A08C300E5
:1006AA003908C2003808C1000030BB000030BA0067
:1006BA000030B9000030B8000030CB000030CA006A
:1006CA000030C9000030C800CD01B52B4D08031910
:1006DA006F2B702B902B0130BC000310C10DC20D83
:1006EA00C30DC40DBC0B722B0130BC000310B80D36
:1006FA00B90DBA0DBB0DBC0B7B2BCB1F852B862BE3
:10070A00872B38140130BC000310C80DC90DCA0D5F
:10071A00CB0DBC0B892B37084402031D9E2B3608D0
:10072A004302031D9E2B35084202031D9E2B3408EB
:10073A004102031CA12BA22BB12B4B173408C10277
:10074A003508031C350FC2023608031C360FC302D4
:10075A003708031C370FC4020130BC003C08CD0720
:10076A001A304D02031CBA2BBB2B6B2B44084304D3
:10077A00420441040319C22BC32BE22B4814E22B77
:10078A000130BC000310B80DB90DBA0DBB0DBC0B7E
:10079A00C72BCB1FD12BD22BD32B38140130BC0043
:1007AA000310C80DC90DCA0DCB0DBC0BD52BFF30DC
:1007BA00C6070318C70AFF30C707BA1FE52BE62B7F
:1007CA00C52BCD01CB1FEA2BEB2B072CFF3048059D
:1007DA00BC00FF304905BD00FF304A05BE007F302E
:1007EA004B05BF003F083E043D043C040319FE2BA1
:1007FA00FF2B022CCD01CD0A072C381C052C062C08
:10080A00072CFF2B4D0803190B2C0C2C3D2C013007
:10081A00B807003003180130B90700300318013057
:10082A00BA07003003180130BB073B1C1D2C1E2CD5
:10083A003D2C3808BC003908BD003A08BE003B0808
:10084A00BF000130C0003F0DBF0CBE0CBD0CBC0C7C
:10085A00C00B282C3F08BB003E08BA003D08B9006F
:10086A003C08B8000130C6070318C70A0030C7079A
:10087A004708803AFF0080307F02031D462CFF3074
:10088A004602031C492C4A2C582CFF3083120313AE
:10089A00C6000030C7000030BB000030BA0000308C
:1008AA00B9000030B800831203134708803AFF00EA
:1008BA0080307F02031D632C013046020318662C28
:1008CA00672C742C83120313C601C7010030BB00C6
:1008DA000030BA000030B9000030B800C5018312F8
:1008EA0003134608BC003C08CC004C1C7D2C7E2C13
:1008FA00802CBA17842C7F30BC003C08BA054C08FF
:10090A00BC0003103C0CBD003D08BB004508BC0000
:10091A003C08BB04282B08008312031351088039B2
:10092A00D6005608DB005108D6005607D7005708EC
:10093A00E100D01FA12CA22CA32C61146108031979
:10094A00A72CA82CB72C610A031DAC2CAD2CB52CF6
:10095A000030D1000030D0000030CF000030CE008F
:10096A00D017BF2C0030D1000030D0000030CF00AB
:10097A000030CE0055088039D6005608DB065508E7
:10098A00D6005607D7005708E000D41FCD2CCE2C2E
:10099A00CF2C601460080319D32CD42CE32C600AE2
:1009AA00031DD82CD92CE12C0030D5000030D400FE
:1009BA000030D3000030D200D417EB2C0030D50021
:1009CA000030D4000030D3000030D2006008031990
:1009DA00EF2CF02CF52C6108031DF42CF52CFE2CC1
:1009EA000030D1000030D0000030CF000030CE00FF
:1009FA00F12F4E08D6005608F00054080A128A153C
:100A0A00BB220A128A11710883120313E7007008C5
:100A1A00E6006608D600D701D801D9015908DF00D7
:100A2A005808DE005708DD005608DC006708D600C3
:100A3A00D701D801D9015908E5005808E400570838
:100A4A00E3005608E2004F08D6005608F0005308A3
:100A5A000A128A15BB220A128A1171088312031319
:100A6A00E7007008E6006608D600D701D801D90168
:100A7A005608DC07570803110318013E0319462DCF
:100A8A00DD07580803110318013E03194D2DDE072F
:100A9A00590803110318013E0319542DDF0767088B
:100AAA00D600D701D801D9015608E2075708031121
:100ABA000318013E0319622DE307580803110318AE
:100ACA00013E0319692DE407590803110318013E71
:100ADA000319702DE5075008D6005608F000520891
:100AEA000A128A15BB220A128A1171088312031389
:100AFA00E7007008E6006608D600D701D801D901D8
:100B0A005608DC07570803110318013E03198E2DF6
:100B1A00DD07580803110318013E0319952DDE0756
:100B2A00590803110318013E03199C2DDF076708B2
:100B3A00D600D701D801D9015608E2075708031190
:100B4A000318013E0319AA2DE307580803110318D5
:100B5A00013E0319B12DE407590803110318013E98
:100B6A000319B82DE5070830D6000310DC0DDD0D9A
:100B7A00DE0DDF0DD60BBA2D4F08D6005608F00051
:100B8A0052080A128A15BB220A128A1171088312A4
:100B9A000313E7007008E6006608D6006708D70066
:100BAA00D801D9015608DC07570803110318013E7A
:100BBA000319E02DDD07580803110318013E031934
:100BCA00E72DDE07590803110318013E0319EE2D1C
:100BDA00DF074E08D6005608F00053080A128A1595
:100BEA00BB220A128A11710883120313E7007008E4
:100BFA00E6006608D6006708D700D801D90156086A
:100C0A00DC07570803110318013E03190D2EDD07EF
:100C1A00580803110318013E0319142EDE07590858
:100C2A0003110318013E03191B2EDF070830D600F3
:100C3A000310DC0DDD0DDE0DDF0DD60B1D2E4E086B
:100C4A00D6005608F00052080A128A15BB220A1268
:100C5A008A11710883120313E7007008E600660818
:100C6A00D6006708D700D801D9015608DC0757080B
:100C7A0003110318013E0319432EDD075808031117
:100C8A000318013E03194A2EDE07590803110318F7
:100C9A00013E0319512EDF074F08D6005608F0000F
:100CAA0054080A128A15BB220A128A117108831281
:100CBA000313E7007008E6006608D6006708D70045
:100CCA00D801D9015608E207570803110318013E53
:100CDA000319702EE307580803110318013E03197C
:100CEA00772EE407590803110318013E03197E2ED3
:100CFA00E5075008D6005608F00053080A128A156C
:100D0A00BB220A128A11710883120313E7007008C2
:100D1A00E6006608D6006708D700D801D901560848
:100D2A00E207570803110318013E03199D2EE30732
:100D3A00580803110318013E0319A42EE4075908A1
:100D4A0003110318013E0319AB2EE5075008D6001C
:100D5A005608F00054080A128A15BB220A128A1190
:100D6A00710883120313E7007008E6006608D600CC
:100D7A006708D700D801D90108300310D60DD70D5E
:100D8A00D80DD90DFF3E031DC22E5608E20757089B
:100D9A0003110318013E0319D32EE3075808031160
:100DAA000318013E0319DA2EE40759080311031840
:100DBA00013E0319E12EE5075C08D6005D08D7005D
:100DCA005E08D8005F08D90018300310D90CD80C77
:100DDA00D70CD60CFF3E031DEA2E5608E207570829
:100DEA0003110318013E0319FB2EE30758080311E8
:100DFA000318013E0319022FE407590803110318C7
:100E0A00013E0319092FE5070830D6000310DC0D4F
:100E1A00DD0DDE0DDF0DD60B0B2F61086007D60046
:100E2A00D701D70D5608823EE60057080318013E3F
:100E3A00FF3EE7003D2F0130D6000310E20DE30D1F
:100E4A00E40DE50DD60B222FDF1F2C2F2D2F2E2F71
:100E5A0062140130D6000310DC0DDD0DDE0DDF0D4E
:100E6A00D60B302FFF30E6070318E70AFF30E707F3
:100E7A00E41F402F412F202FE001DF1F452F462F6F
:100E8A00622FFF305C05D600FF305D05D700FF30CA
:100E9A005E05D8007F305F05D90059085804570409
:100EAA0056040319592F5A2F5D2FE001E00A622FC9
:100EBA00621C602F612F622F5A2F60080319662F58
:100ECA00672F982F0130E207003003180130E3073B
:100EDA00003003180130E407003003180130E50739
:100EEA00651C782F792F982F6208D6006308D700DF
:100EFA006408D8006508D9000130DA00590DD90C08
:100F0A00D80CD70CD60CDA0B832F5908E5005808F1
:100F1A00E4005708E3005608E2000130E607031828
:100F2A00E70A0030E7076708803AFF0080307F024F
:100F3A00031DA12FFF306602031CA42FA52FB02F7B
:100F4A007F3083120313E5008030E4000030E300B1
:100F5A000030E200E52F831203136708803AFF008E
:100F6A0080307F02031DBB2F013066020318BE2F9B
:100F7A00BF2FCB2F003083120313E5000030E400AB
:100F8A000030E3000030E200DB01E52F8312031397
:100F9A006608D6005608E100FF30E205FF30E30597
:100FAA007F30E4050030E505611CDC2FDD2FDE2FE4
:100FBA00E4176108D6000310560CD7005708E5005D
:100FCA005B08D6005608E5046508D1006408D0001D
:100FDA006308CF006208CE00080083160313B50128
:100FEA00B601B701B801B901BA01BB01BC0183015D
:100FFA000A128A117F2908308A000408840A8207A3
:10100A0000343F3406345B344F3466346D347D34F7
:06101A0007347F346F343F
:1014D8008030831603139F00C130831203139F00CB
:1014E8000800831203139715171512158316031393
:1014F80007110800F11F812A822A842AF001F101CC
:101508007108803AFF0083307F02031D8D2AE9307D
:101518007002031C902A912A952AE830F0000330C3
:10152800F1000800F901FA01751C9B2A9C2AA22ADD
:101538007708F9070318FA0A7808FA070130031040
:10154800F70DF80DFF3E031DA32A01300310F60C1A
:10155800F50CFF3E031DAA2A75087604031DB52A5B
:10156800B62A982A7A08F6007908F5000800F800E3
:10157800F401F5017008F200F3017208F60073082F
:10158800F700781CC82AC92ACF2A7608F407031856
:10159800F50A7708F50701300310F60DF70DFF3E41
:1015A800031DD02A0310F80C7808031DDC2ADD2A55
:1015B800C52A7508F1007408F0000800F400083026
:1015C8007402031CE82AE92AEC2AF001F101152B20
:1015D800C530F2007208831203139F057408F200E5
:1015E80002300310F20DFF3E031DF52A0310720DA1
:1015F800F30073089F040330F3009730F200F20BF6
:10160800032BF30B032B082B831203131F151F192E
:101618000E2B0F2B0B2B1E08F100831603131E082D
:10162800F0000800831203132608F9002708FA00BF
:101638002808FB002908FC0002300310F90DFA0DF8
:10164800FB0DFC0DFF3E031D212B02300310F90D8D
:10165800FA0DFB0DFC0DFF3E031D2A2B7C08F30041
:101668007B08F2007A08F1007908F0000030F700F2
:101678003D30F6000930F5000030F4000A128A15F2
:1016880067240A128A157008FF3E83160313920016
:101698000800700871040319522B532B822BF50193
:1016A800F50A612B01300310F00DF10DFF3E031D0B
:1016B800572B0130F4007408F507F11F642B652BD4
:1016C800562B71087302031D6B2B70087202031CE2
:1016D8006E2B6F2B752B7008F2027108031CF30335
:1016E800F30201300310F10CF00CFF3E031D762BC2
:1016F8000130F502031D812B822B652B7308F10045
:101708007208F0000800FB01FC0176087704031951
:101718008E2B8F2BC62BFD01FD0A9D2B013003104C
:10172800F60DF70DFF3E031D932B0130FA007A08E2
:10173800FD07F71FA02BA12B922B01300310FB0DE7
:10174800FC0DFF3E031DA22B77087902031DAE2B6B
:1017580076087802031CB12BB22BB92B7608F80255
:101768007708031CF903F9027B1401300310F70C06
:10177800F60CFF3E031DBA2B0130FD02031DC52BDD
:10178800C62BA12B7C08F7007B08F6000800031085
:10179800831203136A0D6B0D83160313A000200830
:1017A80083120313ED006D08031DDB2BDC2BE52BE7
:1017B8000030EB000030EA000030E9000030E800BB
:1017C800662C680883160313A000831203136908A4
:1017D80083160313A100831203136A0883160313E5
:1017E800A200831203136B0883160313A3001F3090
:1017F8000310A30CA20CA10CA00CFF3E031DFC2B94
:101808002008A400240883120313EC00EA17FF3011
:10181800E805FF30E905FF30EA050030EB059630B2
:10182800ED02ED1F182C192C372C6D08803A973EC5
:1018380003181F2C202C212CDC2B01300310EB0C5F
:10184800EA0CE90CE80CFF3E031D222C013083163C
:101858000313A000200883120313ED07031D352C82
:10186800362C212C562C20306D02031C3C2C3D2C90
:10187800512CDC2B013083160313A00003108312B4
:101888000313E80DE90DEA0DEB0D83160313A00B06
:10189800422C013083120313ED026D08031D552CF1
:1018A800562C3E2C6C0803195A2C5B2C662CE80924
:1018B800E909EA09EB09E80A0319E90A0319EA0A36
:1018C8000319EB0A080083120313A101F31F6D2CFF
:1018D8006E2C7B2CF009F109F209F309F00A0319BF
:1018E800F10A0319F20A0319F30AA101A10AF71F61
:1018F8007E2C7F2C8E2CF409F509F609F709F40AD9
:101908000319F50A0319F60A0319F70A0130F80052
:101918007808A1060030A5000030A4000030A3001C
:101928000030A200730872047104700403199D2C1E
:101938009E2CEB2CA001A00AAE2C0130F80003105D
:10194800F00DF10DF20DF30DF80BA32C0130F8009A
:101958007808A007F31FB12CB22CA12C0130F80095
:101968000310A20DA30DA40DA50DF80BB42C73083C
:101978007702031DC92C72087602031DC92C710851
:101988007502031DC92C70087402031CCC2CCD2CC5
:10199800DC2C7008F4027108031C710FF502720840
:1019A800031C720FF6027308031C730FF70222144C
:1019B80001300310F30CF20CF10CF00CFF3E031D88
:1019C800DD2C0130A002031DEA2CEB2CB22C2108DF
:1019D8000319EF2CF02CFB2CA209A309A409A509D3
:1019E800A20A0319A30A0319A40A0319A50A2508B8
:1019F800F3002408F2002308F1002208F000080090
:101A08000030831203133405BC0000303505BD00D7
:101A180080303605BE007F303705BF003F083E04E2
:101A28003D043C04031D192D1A2D222D0030B7004A
:101A38000030B6000030B5000030B4000030380582
:101A4800BC0000303905BD0080303A05BE007F304B
:101A58003B05BF003F083E043D043C04031D352DF3
:101A6800362D3E2D0030BB000030BA000030B900E2
:101A78000030B800B71F412D422D662D0030BC0044
:101A88000030BD000030BE008030BF003408BC020A
:101A98003508031C350F512D522DBD023608031C85
:101AA800360F572D582DBE023708031C370F5D2DF2
:101AB8005E2DBF023F08B7003E08B6003D08B500DE
:101AC8003C08B400BB1F692D6A2D8E2D0030BC0068
:101AD8000030BD000030BE008030BF003808BC02B6
:101AE8003908031C390F792D7A2DBD023A08031CD9
:101AF8003A0F7F2D802DBE023B08031C3B0F852D1E
:101B0800862DBF023F08BB003E08BA003D08B90059
:101B18003C08B8008030B7068030BB063B08370267
:101B2800031DA02D3A083602031DA02D39083502E1
:101B3800031DA02D380834020318A32DA42DA62DAB
:101B48000310A72D0314080083120313AE002E08F8
:101B58000319AF2DB02DC42DA91FB32DB42DC42D3D
:101B68002609B0002709B1002809B2002909B300E5
:101B7800B00A0319B10A0319B20A0319B30ACC2D22
:101B88002908B3002808B2002708B1002608B000C9
:101B98002908280427042604031DD32DD42DDD2D60
:101BA8000030A9000030A8000030A7000030A600CF
:101BB800632E9630AA002A08AF00EF2D0130AA0044
:101BC8002A08AF0701300310B30CB20CB10CB00CEB
:101BD800FF3E031DE72DFE303305031DF42DF52DC3
:101BE800E22D112E0130AA002A08AF070130B007F4
:101BF800003003180130B107003003180130B20774
:101C0800003003180130B30701300310B30CB20CD5
:101C1800B10CB00CFF3E031D092EFF303305031D28
:101C2800162E172EF62D232E0130AF020130AA00F2
:101C38000310B00DB10DB20DB30DAA0B1C2EB21BC3
:101C4800262E272E2D2E02302F0203182C2E2D2E55
:101C5800182E2F18302E312E392EFF30B005FF30B8
:101C6800B1057F30B205FF30B3050310AF0C2F0864
:101C7800AA00AB01AC01AD0118300310AA0DAB0DE1
:101C8800AC0DAD0DFF3E031D412E2A08B0042B08F4
:101C9800B1042C08B2042D08B3042E080319552EDC
:101CA800562E5B2EA91F592E5A2E5B2EB3173308BA
:101CB800A9003208A8003108A7003008A6000800CB
:101CC80083160313270883120313A600831603132E
:101CD800280883120313A700A801A9010A128A156C
:101CE80016230A128A1504308316031326020030BD
:101CF800031925020318812E822E312F25088312FD
:101D08000313A60083160313260883120313A700E0
:101D1800A801A90100300A128A15A8250A128A15F5
:101D2800831203132908BB002808BA002708B90042
:101D38002608B8004430B7007F30B600C030B50080
:101D48000030B4000A128A11B4220A128A158312CA
:101D580003133708D5003608D4003508D3003408F3
:101D6800D2000030F7003D30F6000930F5000030B1
:101D7800F40083160313280883120313EF00831655
:101D88000313270883120313EE000310EE0DEF0D63
:101D98000310EE0DEF0D6E08F0006F08F100F20170
:101DA800F3010A128A1567240A128A157308831226
:101DB8000313A9007208A8007108A7007008A600FC
:101DC80001300A128A15A8250A128A1583120313EC
:101DD8002908D1002808D0002708CF002608CE00FF
:101DE8000A128A1191240A128A15831203135108C0
:101DF800EB005008EA004F08E9004E08E8000A1214
:101E08008A15CB230A128A158312031369088316CD
:101E18000313A60083120313680883160313A5008F
:101E28008312031397128316031325181C2F202FD0
:101E3800831203131716232F831203131712831603
:101E48000313250883120313EE0002300310EE0C6F
:101E5800FF3E031D2A2F6E08950008008316031302
:101E6800270883120313A600831603132808831276
:101E78000313A700A801A9010A128A1516230A123A
:101E88008A1504308316031326020030031925022D
:101E980003184F2F502FFF2F250883120313A60076
:101EA80083160313260883120313A700A801A901A8
:101EB80000300A128A15A8250A128A1583120313FC
:101EC8002908BB002808BA002708B9002608B80066
:101ED8004430B7007F30B600C030B5000030B400E1
:101EE8000A128A11B4220A128A15831203133708B8
:101EF800D5003608D4003508D3003408D2000030A5
:101F0800F7003D30F6000930F5000030F400831684
:101F18000313280883120313EF00831603132708FB
:101F280083120313EE000310EE0DEF0D0310EE0DF8
:101F3800EF0D6E08F0006F08F100F201F3010A12CC
:101F48008A1567240A128A15730883120313A900D5
:101F58007208A8007108A7007008A60001300A12CC
:101F68008A15A8250A128A15831203132908D10095
:101F78002808D0002708CF002608CE000A128A11A8
:101F880091240A128A15831203135108EB00500892
:101F9800EA004F08E9004E08E8000A128A15CB2328
:101FA8000A128A1583120313690883160313A600FD
:101FB80083120313680883160313A50083120313FF
:101FC8009D12831603132518EA2FEE2F831203138D
:101FD8001D16F12F831203131D12831603132508F0
:101FE80083120313EE0002300310EE0CFF3E031DB4
:081FF800F82F6E089B000800A1
:02400E003A3F37
:00000001FF
